:020000040800F2
:107000005810002045710008297C0008217C0008E8
:10701000257C00088D7100083D7C00080000000000
:10702000000000000000000000000000317C0008AB
:1070300091710008000000002D7C0008357C0008DC
:107040005F7100085F7100085F7100085F710008E0
:107050005F7100085F7100085F7100085F710008D0
:107060005F7100085F7100085F7100085F710008C0
:107070005F7100085F7100085F7100085F710008B0
:107080005F7100085F7100085F7100085F710008A0
:107090005F7100085F7100085F7100085F71000890
:1070A0005F7100085F7100085F7100085F71000880
:1070B0005F7100085F7100085F7100085F71000870
:1070C0005F7100085F7100085F7100085F71000860
:1070D0005F7100085F7100085F7100085F71000850
:1070E0005F7100085F7100085F7100085F71000840
:1070F0005F7100085F7100085F7100085F71000830
:107100005F7100085F7100085F7100085F7100081F
:107110005F7100085F7100085F7100085F7100080F
:107120005F7100085F7100085F7100085F710008FF
:10713000DFF80CD000F018F800480047697C000820
:10714000581000200648804706480047FEE7FEE743
:10715000FEE7FEE7FEE7FEE7FEE7FEE7FEE7FEE707
:10716000397C000831710008064C074D06E0E068E4
:1071700040F0010394E8070098471034AC42F6D37E
:10718000FFF7DAFFB47D0008D47D0008FEE70000B9
:10719000704700002DE9F04F82B0D1F800C0BCF17B
:1071A000000F00F0F180A0F1804241F60045A2F509
:1071B0008432C4F2010540F2004E4FEAB2240627A1
:1071C000A842C4F2010E08BF0527052C4FF00004A9
:1071D0004FF001084FF00F034FF0000A4FF0000B83
:1071E00038BF4FEAB22700970AE000BFD1F800C0CD
:1071F0000AF1010A3CFA0AF204F1040400F0C48026
:1072000008FA0AF91CEA090FF0D04E684FF6FF722F
:10721000C1F21002964211DC122E55D8DFE806F0BA
:10722000340A4448545454545454545454545454A4
:10723000544C5000D1F80CB046E000BF4FF6FF723E
:10724000C1F2210296420FDC0022C1F211029642E5
:107250001AD00022C1F21202964215D00022C1F2C9
:107260002102964210D02FE00022C1F22202964263
:107270000AD00022C1F23102964205D00022C1F2AA
:107280003202964220D100BF8A684AB1012A14BF57
:10729000C0F81490C0F810904FF0080B14E000BF35
:1072A0004FF0040B10E000BFCA6802F1080B0BE0BE
:1072B0004FF0000B08E000BFCA6802F1040B03E0C6
:1072C000CA6802F10C0B00BF22460646BAF1080F4D
:1072D00024BF203A0436376803FA02F5AF430BFAAD
:1072E00002F23A433260CA79D2067FF57FAF41F2AB
:1072F0001807C4F202073A684FF6084342F0010249
:107300003A603A68CFF6FF7302F001020192019AE7
:107310002AF0030272440F25D75804F00C06B5403A
:10732000AF43009D05FA06F63743D7504E6840F24A
:107330000C45F203DEF8002054BF22EA090242EABB
:107340000902CEF80020DEF80420B70354BF22EA79
:10735000090242EA0902CEF80420DEF80820C4F24D
:107360000105F70254BF22EA090242EA0902CEF8F7
:1073700008200F232A68B70254BF22EA090242EA12
:1073800009022A6032E700BF02B0BDE8F08F0000BA
:1073900040F25400C2F200000068704740F204005E
:1073A00040F25401C2F20000C2F2000100780A6803
:1073B000104408607047000080B542F20000C4F23B
:1073C0000200016841F010010160032000F072F832
:1073D0000F2000F005F800F027F8002080BD000025
:1073E00070B540F20406C2F2000640F20C01327899
:1073F000C2F200014FF47A730968B3FBF2F204465B
:10740000B1FBF2F1084600F047FB0F2C4FF00105ED
:1074100008D838B94FF0FF3021460022002500F08F
:107420001DF87460284670BD82B041F21800C4F2A5
:107430000200016841F001010160016801F00101F1
:1074400001910199416841F080514160406800F02C
:1074500080500090009802B07047000010B54EF6C2
:107460000C5CCEF2000CDCF80030C3F3022E8EF080
:107470000704042C28BF0424BEF103034FF0FF3E91
:107480000EFA04F438BF0023A14399400EFA03F327
:107490009A43114300F00F0200F160430901043ADE
:1074A00003F564436244002848BF02F10C031970DD
:1074B00010BD00004EF60C51CEF200010A684FF6E6
:1074C000FF031A4060F30A2242F0806040F0FD7032
:1074D000086070472DE9F04381B0002800F08580F6
:1074E00042F20008C4F202080446D8F800000D4633
:1074F00000F0070088420CD2D8F8000020F0070006
:107500002843C8F80000D8F8000000F00700A8429F
:107510006BD1206841F204098107C4F2020917D532
:10752000410705D5D9F8001041F4E061C9F8001011
:10753000010705D5D9F8001041F46051C9F80010D1
:10754000D9F80010A26821F0F0011143C9F8001029
:10755000C00741D1D8F8000000F00700A8420CD9BC
:10756000D8F8000020F007002843C8F80000D8F839
:10757000000000F00700A84237D12068410707D576
:10758000D9F80010E26821F4E0611143C9F8001055
:10759000000708D5D9F80000216920F4605040EABE
:1075A000C100C9F80000D9F8002002F00C0008283A
:1075B00041F20020C0F27A0050D147F6A253C2F344
:1075C0008341C0F60003595CD2033BD440F600105F
:1075D000C0F23D00484341E0606802280AD001281B
:1075E0002AD159F8041C890308D4012001B0BDE850
:1075F000F08300BF59F8041C8901F6D5D9F80010B2
:1076000021F003010843C9F80000FFF7C1FE064658
:1076100041F28837D9F80000616800F00C00B0EB47
:10762000810F97D0FFF7B4FE801BB842F2D9032038
:1076300001B0BDE8F08300BF59F8041C8907D4D518
:10764000DCE700BFD9F8002047F68853C2F3404278
:10765000C0F600039A5C4843B0FBF2F0D9F8001082
:1076600047F68A52C1F30311C0F60002515C40F2A2
:107670000C0220FA01F140F20800C2F2000000689A
:10768000C2F200021160FFF7ABFE002001B0BDE8BE
:10769000F083000040F20C0041F20401C2F200004D
:1076A000C4F202010068096847F69A52C1F3022148
:1076B000C0F60002515CC8407047000040F20C0068
:1076C00041F20401C2F20000C4F20201006809683C
:1076D00047F69A52C1F3C221C0F60002515CC8407D
:1076E000704700002DE9F04182B0002868D00446C0
:1076F000007841F20006C007C4F2020625D0706887
:1077000000F00C0004281BD0706800F00C00082862
:1077100002D17068C00313D46068002800F068814B
:10772000B0F5A02F00F07C81B0F5803F00F07C81A7
:10773000306820F480303060306820F4802076E1BA
:107740003068800301D56068D0B32078800718D5F1
:10775000706810F00C0F07D0706800F00C0008285B
:107760006ED17068C0036BD43068800702D5206981
:10777000012825D13068616920F0F80040EAC10095
:107780003060207800071FD42078400732D4E569A4
:1077900095B1706800F00C00082840F08F80012D32
:1077A0000ED07068216A00F480328A4208D1616A82
:1077B00000F47010884203D1002002B0BDE8F081CF
:1077C000012002B0BDE8F081A069002862D000204D
:1077D000C4F242200121C0F88014FFF7D9FD05460C
:1077E000706A800700F18C80FFF7D2FD401B0228F1
:1077F000F6D92AE1F06910F0805808D1F06940F01C
:107800008050F061F06900F080500090009847F2DD
:107810000007C4F200073868C00529D4386840F46E
:1078200080703860FFF7B4FD054600BF3868C005BA
:107830001ED4FFF7ADFD401B6428F7D905E100BF5A
:107840002069002840F20000C4F2422000F082804B
:1078500001210160FFF79CFD054600BF30688007ED
:107860003FF588AFFFF794FD401B0228F6D9ECE006
:10787000E068002800F08080052800F0978001284B
:1078800000F09880306A20F001003062306A20F009
:10789000040092E00020C4F242200021C0F88014CD
:1078A000FFF776FD054600BF706A80077FF56CAF75
:1078B000FFF76EFD401B0228F6D9C6E00027C4F290
:1078C000422700203866FFF763FD022D05460BD1E5
:1078D0003068800140F1BE80FFF75AFD401B02284E
:1078E0004FF00300F4D968E7306880017FF564AF9A
:1078F000FFF74EFD401B02284FF00300F4D95CE770
:1079000040F20C00C2F20000006844F6D351C1F20C
:107910006201A0FB0101480A019000BF00BF01986D
:10792000411E002801913FF42FAF00BF0198411E76
:10793000002801913FF428AF00BF0198411E0028A4
:1079400001913FF421AF00BF0198411E0028019131
:10795000E4D119E700210160FFF71AFD054600BFD9
:10796000306880077FF50DAFFFF712FD401B02283E
:107970004FF00300F4D920E7306A20F001003062B4
:10798000306A20F004003062FFF702FD054641F244
:10799000883700BF306A800720D5FFF7F9FC401B0D
:1079A000B8424FF00300F5D907E700BF306A40F056
:1079B00004003062306A40F001003062FFF7E8FCFA
:1079C000054641F2883700BF306A800706D4FFF7CA
:1079D000DFFC401BB842F7D937E000BFB8F1000F19
:1079E0007FF4D5AEF06920F08050F061CFE600BFA3
:1079F000306820F480303060306820F480203060BF
:107A0000FFF7C6FC054600BF306880037FF59DAEDA
:107A1000FFF7BEFC401B64284FF00300F4D9CCE60E
:107A2000306840F480203060306840F4803030604E
:107A3000FFF7AEFC054600BF306880033FF585AE1A
:107A4000FFF7A6FC401B6428F6D9032002B0BDE86E
:107A5000F08100BF206AB0F5803F05D17168A2684F
:107A600021F40031114371607168626A21F474116C
:107A700011430843706001203866FFF789FC044613
:107A8000306880013FF598AEFFF782FC001B0228AA
:107A90004FF00300F4D990E6411E0020B0EB116FC7
:107AA0001CBF012070474EF21002CEF2000251605E
:107AB0004EF62351CEF20001F0230B7007219060A7
:107AC00011607047002804BF0120704710B50446BC
:107AD00090F83D0028B9002084F83C00204600F0D2
:107AE00061F8242084F83D002068D4E90212C368BC
:107AF00023F40053C360036923F440531A43026123
:107B0000D4E904231143C268194341F20C639A4338
:107B10001143C1604169A26921F44071114343F6E8
:107B20000002C4F201029042416103D0FFF7B2FDAE
:107B300002E000BFFFF7C2FD6268192148439100CF
:107B4000B0FBF1F048F21F51C5F2EB11A0FB01238D
:107B50005A094FF69C73C0F6FF7302FB03003223F1
:107B600003EB0010A0FB0101F02303EA511320688E
:107B700003EB0212C1F3431111448160016921F446
:107B800090410161416921F02A014161C16841F4DC
:107B90000051C16000202021206484F83D1084F849
:107BA0003E1010BD70B586B040F60004C4F201046A
:107BB000006804F5405100268842049602D006B0C1
:107BC00070BD00BF41F21800C4F20200016802ADAE
:107BD00041F480410160016801F480410191019903
:107BE000016841F0040101600068294600F00400CA
:107BF000019001984FF4007002900220039003203E
:107C000005902046FFF7C6FA4FF48060CDE90206E2
:107C1000204629460496FFF7BDFA06B070BD000065
:107C2000FEE70000FEE70000FEE7000070470000EE
:107C300070470000FFF7B2BB70470000FEE700008E
:107C400043F60001C4F201010A68520609D40A6829
:107C500052065CBF0A685FEA426202D40A685206B2
:107C6000F2D5C0B24860704790B0FFF7A5FB002482
:107C70000120CDE90B44CDE9094406900A904FF468
:107C8000E0104FF4803102250F9006A8CDE90714CB
:107C9000CDE90D51FFF726FD20B1EFF3108072B64C
:107CA000FEE700BF0F20CDE901054FF48060CDE96C
:107CB000040401A802210394FFF70CFC20B1EFF3A8
:107CC000108072B6FEE700BF41F21800C4F2020055
:107CD0000168002341F02001016001680C2501F0DA
:107CE00020010691069901684FF4E13241F0040148
:107CF0000160006843F6000100F004000690069859
:107D000040F21000C2F20000C4F2010180E80E004F
:107D1000C0E90333C0E90553C361FFF7D3FE28B1BF
:107D2000EFF3108072B600BFFEE700BF02A400BFF1
:107D3000204600F017F8FBE732323232323232326C
:107D400032320D0002E008C8121F08C1002AFAD121
:107D500070477047002001E001C1121F002AFBD1CB
:107D60007047000010B5044601E0FFF769FF14F802
:107D7000010B04490028F8D1BDE810400A20FFF7A4
:107D80005FBF0000000000200102000000000000B2
:107D900000000102030406070809000000000102B8
:107DA000030402030405060708090A0B0C0D0E0F55
:107DB00010100000D87D0008000000201000000016
:107DC000447D0008E87D00081000002048100000F5
:107DD000547D0008000000000000000001000000C9
:087DE000100000000024F40073
:04000005080071314D
:00000001FF
